:020000040000FA
:10000000000041309F008316FF30850000308600DD
:10001000003087000030880085309F0087308100E5
:100020008312003088000130082138300821063062
:1000300008210C30082101300821012190300821CD
:1000400001308800DA21BB300821B6300821D330D6
:100050000821AD300821CA300821B9300821D33039
:100060000821C3300821012188300821013088008F
:10007000DA2157300821453008214C30082143301F
:1000800008214F3008214D3008214530082121300A
:1000900008212221222122210E21012101300821C3
:1000A0000430B500870153212608A700A70CA70C30
:1000B000A70CA70C2712A7122713A713A50DA50D90
:1000C000A50DA50DA5112511A51025102508A7071B
:1000D0002708B1212808AC002908A2002A08A3009B
:1000E0002608A4002412A4122413A4132408A4078D
:1000F000A407A407A407A407A407A407A407A407A8
:10010000A40E2412A4122413A413CC212A08A400A0
:1001100001218030082101308800CE300821C23012
:100120000821B6300821C83008213A3008212C08AF
:10013000F52008212208F52008212308F5200821B0
:100140002E3008212408F5200821A1300821E630AE
:100150000821E321C7094711C7114712C7124713E6
:10016000C713C509F1212808C1002908C2002A08BF
:10017000C3002E08C60001219030082101308800FC
:10018000CA300821AA300821B6300821C830082119
:100190003A3008214108F52008214208F5200821BD
:1001A0004308F52008212E3008214608F5200821B3
:1001B0002530082101219830082101308800DA21FA
:1001C000CE300821C2300821CA300821AA300821C7
:1001D000B6300821C8300821BC300821C6300821BB
:1001E0002030082120300821522882073034313451
:1001F00032343334343435343634373438343934B3
:100200000800003088000E21403088000E210800D0
:10021000860008150E2108110E2108000C30A000E0
:100220009830A100A10B1229A00B102908000E2163
:100230000E210E210E210E210E210E210E210E2146
:100240000E21080017211721172117211721172127
:10025000172117211721172108000430B300B30B11
:100260002F2908000930B300B30B342908000E30E1
:10027000B300B30B392908001730B300B30B3E2984
:1002800008000730B3000F30D000D00B4529B30B66
:10029000432908000730B3001730D000D00B4E2997
:1002A000B30B4C2908006521CC307D2144307D21E1
:1002B0004A216521CC307D21BE307D219321320839
:1002C000A60093213208A50008000130B40083166F
:1002D0000710831207140000000007104A210714BA
:1002E0003C218316071483120718672941218316BE
:1002F00007108312071400000800B0000830B10096
:1003000083160710831207140000000007102D2128
:10031000B00C031C8D2907148E29071037210714F0
:10032000B10B83290800B2010830B100B401831673
:1003300007108312071000000000000000000000FA
:1003400000000714000000000000000083160714DE
:1003500083120314071C0310B20C3C21B10B962925
:100360000800AB00A801A901AA012B0BB8296A2833
:10037000AA0AAA19C029A919C629AB0BB8296A2843
:10038000AA18C321BB29AA01A90ABB29A918C921F6
:10039000BD29A901A80ABD29AB00AA012B0BD129AF
:1003A0008628AA0AAA19D729AB0BD1298628AA1808
:1003B000AA01D4292030082120300821203008212A
:1003C0002030082108000B1DE3290B111F150C1FFD
:1003D000E7291E081E08C70083161E088312C500E1
:1003E0000800A8010230A900AA01AE01C70AAE0A9E
:1003F000AE0AAE190C2AAA19122AA919182A280B12
:10040000072A0130A800A901AA01AE01B328C50B33
:10041000F729C70BF729B328AE180F22FB29AE0125
:10042000AA0AFB29AE181522FD29AA01A90AFD294D
:0C043000A9181B22FF29A901A80AFF2916
:04043C000034003454
:00000001FF
