:1000000000000A128A11962CFF1B0E2883137F18FA
:1000100083170008840A0319FF0A080000308A00C9
:100020000408840A82070034203420342034203429
:10003000BB34B634D334AD34CA34B934D334C33416
:100040002034203420342034203420342034203410
:100050002034203420342034203420342034203400
:100060002034203420340034203420342034203410
:10007000573465346C3463346F346D3465342134F3
:08008000203420342034203428
:1008F600073083169F0085018801FF3086008F3000
:10090600810008007E088A007F08820085240A127A
:100916008A118000840A04087D0603190034FF0A40
:100926000319FE0A892C5030DA01DB01DC01DD01F6
:10093600DE01DF018313FD000430FE00AC30FF0052
:10094600203084000A128A11892483010A128A112E
:10095600DC2C50344D3432342E3435343A34303481
:10096600303430343034753467342F346D345E347B
:100976003234CA34AA34B634C8343A342034303423
:10098600303430342E34303425342034203420347E
:100996002034CE34C234B634C8343A3420343034F9
:1009A60030342E343034A134E6342034203420342C
:1009B60000340A128A117B240A128A110A128A1139
:1009C60028260A128A111130D001D00AD101D2008C
:1009D6008030D3000A128A117C250A128A1102304D
:1009E600D0000130D101D2008030D3000A128A1122
:1009F6007C250A128A110330D0002130D101D200A1
:100A06008030D3000A128A117C250A128A1104301A
:100A1600D0001130D101D2008030D3000A128A11E1
:100A26007C250A128A11D030F1000730F2000A1232
:100A36008A110E260A128A110230D0001130D10115
:100A4600D2008030D3000A128A117C250A128A113C
:100A56000330D0001130D101D2008030D3000A1209
:100A66008A117C250A128A1164008312031340300E
:100A7600D001D00AD101D200D3010A128A117C25F5
:100A86000A128A110230D0003030D101D200D301CF
:100A96000A128A117C250A128A110330D0002030EE
:100AA600D101D200D3010A128A117C250A128A11B9
:100AB6000430D0001130D101D2008030D3000A12A8
:100AC6008A117C250A128A110A128A11C2250A1273
:100AD6008A110A128A1144260A128A110A128A11E6
:100AE600F4260A128A110A128A1198260A128A1103
:100AF600372D862D8030842D9030842D8830842D9E
:100B060098308800992D5108003A03198B2D992D9C
:100B16005008013A03197D2D033A03197F2D013A36
:100B26000319812D073A0319832D992D3B260A12A5
:100B36008A115308F9005208F800A12DFA017A0823
:100B46007807840079080318790AFF000A128A11C7
:100B560004200A128A11B7250A128A111030FA0ADD
:100B66007A0203180800A22DF70088000A308514BF
:100B760005118511F100F2010E2685150800061CE7
:100B8600DB2D0A30F100F2010E260A128A11061C2C
:100B9600DB2DDE0A0319DF0A061CDB2D0618CF2D16
:100BA6000A30F100F2010E260A128A110618CF2D1C
:100BB600861CF42D0A30F100F2010E260A128A1163
:100BC600861CF42DDA0A0319DB0A861CF42D861816
:100BD600E82D0A30F100F2010E260A128A11861853
:100BE600E82D061D08000A30F100F2010E260A1251
:100BF6008A11061D0800DC0A0319DD0A061D080015
:100C06000619012E0A30F100F2010E260A128A1187
:100C1600061D0800012E7208F4007108F30074081E
:100C26007304031908006E30F5000130F601F50271
:100C3600031CF603760875040130031D1A2EF30211
:100C46000030031CF403F402122E013083128800D4
:100C56003B260A128A11383088003B260A128A116E
:100C66000E3088003B260A128A11063088003B2E79
:100C76000A30851005118511F100F2010E26851541
:100C860008006430F700F8015F08FA005E08F90012
:100C96009A270A128A117808D7007708D6000A30F0
:100CA600F700F801E8270A128A1150270A128A115A
:100CB6005E087107F9005F0803185F0A7207FA00F9
:100CC6009A270A128A117808D9007708D800590895
:100CD600F2005808FA270A128A1150270A128A11B6
:100CE6007208D5007108D400E8270A128A11502725
:100CF6000A128A117108D4070318D50A7208D50793
:100D06005E08D4070318D50A5F08D5075908F2000C
:100D16005808F10069270A128A11C6005508F20020
:100D26005408F1006927C70008006430F700F8018D
:100D36005D08FA005C08F9009A270A128A117808F9
:100D4600D9007708D8000A30F700F801DF270A1221
:100D56008A1150270A128A115C087107F9005D088A
:100D660003185D0A7207FA009A270A128A11780890
:100D7600D7007708D6005708F2005608FA270A1255
:100D86008A1150270A128A117208D5007108D400F8
:100D9600DF270A128A1150270A128A117108D4070E
:100DA6000318D50A7208D5075C08D4070318D50AB4
:100DB6005D08D5075908F2005808F10069270A129C
:100DC6008A11A7005708F2005608F10069270A128F
:100DD6008A11A8005508F2005408F1006927A900F5
:100DE60008006430F700F8015B08FA005A08F900B9
:100DF6009A270A128A117808D9007708D8000A308B
:100E0600F700F801F1270A128A1150270A128A11EF
:100E16005A087107F9005B0803185B0A7207FA00A3
:100E26009A270A128A117808D7007708D600570839
:100E3600F2005608FA270A128A1150270A128A1156
:100E46007208D5007108D400F1270A128A115027BA
:100E56000A128A117108D4070318D50A7208D50731
:100E66005A08D4070318D50A5B08D5075908F200B3
:100E76005808F10069270A128A11B6005708F200CD
:100E86005608F10069270A128A11B7005508F200C0
:100E96005408F1006927B8000800F501F601711C35
:100EA6005A2F7308F5070318F60A7408F607031095
:100EB600F30DF40D0310F20CF10C72087104031D0E
:100EC600522F7608F2007508F1000800742F3034AE
:100ED60031343234333434343534363437343834C8
:100EE60039347208003A0319792F992F7108003A9C
:100EF60003196A2F013A03196B2F033A03196C2F52
:100F0600013A03196D2F073A03196E2F013A031997
:100F16006F2F033A0319702F013A0319712F0F3AF5
:100F26000319722F013A0319732F992F0800D10163
:100F3600F81FA42FF709F809F70A0319F80AD101CF
:100F4600D10AFA1FAD2FF909FA09F90A0319FA0AA3
:100F56000130D106D201D301780877040319D22FC4
:100F6600D001D00AF81BBB2F0310F70DF80DB42FD4
:100F76000310D20DD30D78087A02031DC42F77080B
:100F86007902031CCE2F7708F9027808031CFA03AE
:100F9600FA0252140310F80CF70CD00BBB2F5108B1
:100FA6000319DA2FD209D309D20A0319D30A53082F
:100FB600F8005208F70008005908F2005808F10036
:100FC6009C30F300FF30F40008005708F200560882
:100FD600F1009C30F300FF30F40008005908F200DD
:100FE6005808F1009C30F300FF30F4000800F100CF
:0A0FF600F630F300FF30F4000800AD
:02400E00453536
:00000001FF
