:1000000000000A128A115A2F00308A000408840A5C
:10001000820700343F3406345B344F3466346D3429
:100020007D3407347F346F3477347C3439345E3434
:04003000793471347A
:100EB40083010A128A115E2F831685018801831229
:100EC400A001A101A201A30120300A128A118727DF
:100ED4000A128A1183120313A30A23080A3A031D70
:100EE400752FA301A20A22080A3A031D7B2FA2012F
:100EF400A10A21080A3A031D812FA101A00A200892
:100F04000A3A031D662F622F862FF800F901FA01B1
:100F140078089D270A128A11F90A0319FA0A7A082D
:100F2400803AFF0080307F02031D9A2F7D307902C2
:100F3400031808008A2FF700840083130008013E79
:100F440084000A128A1104200A128A1183120313DC
:100F54008800083085000230F100F201E6277708A6
:100F6400013E84000008013E84000A128A11042014
:100F74000A128A118800043085000230F100F2015F
:100F8400E6277708023E84000008013E84000A1226
:100F94008A1104200A128A11880002308500F100A7
:100FA400F201E6277708033E84000008013E84002E
:100FB4000A128A1104200A128A118800013085005D
:100FC4000230F100F201E62F7208F4007108F30018
:100FD40074087304031908006E30F5000130F6013B
:100FE400F502031CF603760875040130031DF22F85
:0C0FF400F3020030031CF403F402EA2FA7
:02400E00313B44
:00000001FF
